:020000040800F2
:1000000000280020FD1900088D1900089319000828
:10001000991900089F190008A519000800000000A0
:10002000000000000000000000000000AB19000804
:10003000B719000800000000C3190008CF19000814
:10004000451A0008451A0008451A0008451A000814
:10005000451A0008451A0008451A0008451A000804
:10006000451A0008451A0008451A0008451A0008F4
:10007000451A0008451A0008451A0008451A0008E4
:10008000451A0008451A0008451A0008451A0008D4
:10009000451A0008451A0008451A0008451A0008C4
:1000A000451A0008451A0008451A0008451A0008B4
:1000B000DD190008451A000800000000451A000874
:1000C000451A00080000000000000000451A000862
:1000D00000000000451A0008451A00080000000052
:1000E000451A0008451A0008451A000800000000DB
:1000F0000000000000000000000000000000000000
:0C01000000000000000000005FF808F1A3
:10010C0010B5054C237833B9044B13B10448AFF345
:10011C0000800123237010BD64000020000000004B
:10012C009C30000808B5034B1BB103490348AFF3DF
:10013C00008008BD00000000680000209C30000812
:10014C0080B400AF034B01221A6000BFBD4680BCD7
:10015C00704700BF8000002080B400AF034B012229
:10016C001A6000BFBD4680BC704700BF84000020F1
:10017C0080B400AF034B01221A6000BFBD4680BCA7
:10018C00704700BF8800002080B400AF064B1B688E
:10019C00012B04D1044B00221A60012300E0002340
:1001AC001846BD4680BC70478000002080B400AF6C
:1001BC00064B1B68012B04D1044B00221A6001234F
:1001CC0000E000231846BD4680BC70478400002028
:1001DC0080B400AF064B1B68012B04D1044B0022EA
:1001EC001A60012300E000231846BD4680BC70470E
:1001FC008800002080B400AF064B1B68012B04D193
:10020C00044B00221A60012300E000231846BD466F
:10021C0080BC70478C00002080B500AF264B1B685B
:10022C00264A1360264B1B68234A13604FF4804107
:10023C00244801F0EDFE03461A46214B1A601E4B72
:10024C001A681F4B1B689A4234D11B4B1A681B4B04
:10025C001B689A422ED1194B1A681B4B1B689A4289
:10026C000DD0164B1B68184A1360174B1B68002BDC
:10027C0020D1164B64221A60FFF76EFF1AE0134B65
:10028C001B68013B114A1360104B1B68002B11D1EA
:10029C000B4B1B68012B07D1094B1B680A4A1360D7
:1002AC000B4B00221A6002E0094B01221A60074B2B
:1002BC0064221A6000BF80BD1400002018000020CA
:1002CC0010000020000C01401C0000203400002015
:1002DC008C00002080B500AF1F4B1B681F4A1360B9
:1002EC001F4B1B681C4A13604FF400511D4801F052
:1002FC008FFE03461A461A4B1A60174B1A68184B96
:10030C001B689A4225D1144B1A68144B1B689A42ED
:10031C001FD1124B1A68144B1B689A420DD00F4B0D
:10032C001B68114A1360104B1B68002B11D10F4B2B
:10033C0064221A60FFF704FF0BE00C4B1B68013BB7
:10034C000A4A1360094B1B68002B02D1064B012291
:10035C001A6000BF80BD00BF040000200800002010
:10036C0000000020001001400C0000203000002094
:10037C0080B500AF1F4B1B681F4A13601F4B1B68D7
:10038C001C4A13604FF400411D4801F041FE034626
:10039C001A461A4B1A60174B1A68184B1B689A426C
:1003AC0025D1144B1A68144B1B689A421FD1124B5F
:1003BC001A68144B1B689A420DD00F4B1B68114ADC
:1003CC001360104B1B68002B11D10F4B64221A6069
:1003DC00FFF7CEFE0BE00C4B1B68013B0A4A136087
:1003EC00094B1B68002B02D1064B01221A6000BF7F
:1003FC0080BD00BF24000020280000202000002029
:10040C00000C01402C0000203800002080B485B086
:10041C0000AF786039607A681C4B83FB021399102B
:10042C00D317C91A0B469B000B445B00D31AFB6015
:10043C007B68164A82FB03129210DB17D31A7B607F
:10044C00134A7B681360124AFB6853603A680F4B7F
:10045C0083FB02139910D317C91A0B469B000B444C
:10046C005B00D31ABB603B68084A82FB03129210F4
:10047C00DB17D31A3B60064A3B689360044ABB689F
:10048C00D36000BF1437BD4680BC70476766666694
:10049C00B400002080B582B000AF78607B68092B77
:1004AC0000F2808101A252F823F000BFE1040008A1
:1004BC002905000871050008B905000801060008A7
:1004CC004906000891060008D90600082107000813
:1004DC006907000800220121B54801F0B0FD002297
:1004EC000221B34801F0ABFD00220421B04801F019
:1004FC00A6FD00220821AE4801F0A1FD002210212A
:10050C00AB4801F09CFD00222021A94801F097FD89
:10051C0001224021A64801F092FD44E10122012173
:10052C00A34801F08CFD00220221A14801F087FDB7
:10053C00002204219E4801F082FD012208219C48E2
:10054C0001F07DFD01221021994801F078FD012276
:10055C002021974801F073FD01224021944801F0BD
:10056C006EFD20E100220121914801F068FD00227E
:10057C0002218F4801F063FD012204218C4801F017
:10058C005EFD002208218A4801F059FD002210214D
:10059C00874801F054FD01222021854801F04FFDD0
:1005AC0000224021824801F04AFDFCE0002201219A
:1005BC007F4801F044FD002202217D4801F03FFDFF
:1005CC00002204217A4801F03AFD002208217848E3
:1005DC0001F035FD01221021754801F030FD01229A
:1005EC002021734801F02BFD00224021704801F0BE
:1005FC0026FDD8E0012201216D4801F020FD0022EA
:10060C0002216B4801F01BFD00220421684801F017
:10061C0016FD01220821664801F011FD012210216E
:10062C00634801F00CFD00222021614801F007FD18
:10063C00002240215E4801F002FDB4E000220121BD
:10064C005B4801F0FCFC01220221594801F0F7FC47
:10065C0000220421564801F0F2FC002208215448E3
:10066C0001F0EDFC01221021514801F0E8FC0022C0
:10067C0020214F4801F0E3FC002240214C4801F0BE
:10068C00DEFC90E000220121494801F0D8FC012257
:10069C000221474801F0D3FC00220421444801F018
:1006AC00CEFC00220821424801F0C9FC0022102196
:1006BC003F4801F0C4FC002220213D4801F0BFFC62
:1006CC00002240213A4801F0BAFC6CE000220121E2
:1006DC00374801F0B4FC00220221354801F0AFFC90
:1006EC0000220421324801F0AAFC012208213048E2
:1006FC0001F0A5FC012210212D4801F0A0FC0122E3
:10070C0020212B4801F09BFC01224021284801F0BC
:10071C0096FC48E000220121254801F090FC0022C3
:10072C000221234801F08BFC00220421204801F017
:10073C0086FC002208211E4801F081FC00221021B9
:10074C001B4801F07CFC00222021194801F077FCA9
:10075C0000224021164801F072FC24E00022012105
:10076C00134801F06CFC00220221114801F067FCD7
:10077C00002204210E4801F062FC002208210C48E2
:10078C0001F05DFC01221021094801F058FC002207
:10079C002021074801F053FC00224021044801F0BD
:1007AC004EFC00E000BF00BF0837BD4680BD00BF57
:1007BC00000C014080B582B000AF78607B68032BE1
:1007CC0000F28F8001A252F823F000BFE907000865
:1007DC002908000869080008A908000800224FF43D
:1007EC008061424801F02BFC01224FF400613F482C
:1007FC0001F025FC01224FF480513C4801F01FFC14
:10080C0001224FF40051394801F019FC384A7B6839
:10081C0052F823301846FFF73DFE63E001224FF4F7
:10082C008061324801F00BFC00224FF400612F482C
:10083C0001F005FC01224FF480512C4801F0FFFB24
:10084C0001224FF40051294801F0F9FB284A7B683A
:10085C0052F823301846FFF71DFE43E001224FF4F7
:10086C008061224801F0EBFB01224FF400611F482C
:10087C0001F0E5FB00224FF480511C4801F0DFFB36
:10088C0001224FF40051194801F0D9FB184A7B683A
:10089C0052F823301846FFF7FDFD23E001224FF4F8
:1008AC008061124801F0CBFB01224FF400610F482C
:1008BC0001F0C5FB01224FF480510C4801F0BFFB45
:1008CC0000224FF40051094801F0B9FB094B0022FA
:1008DC001A60074A7B6852F823301846FFF7DAFD96
:1008EC0000E000BF00BF0837BD4680BD00080140D6
:1008FC00B40000209000002080B500AFA64B1B6810
:10090C00032B00F0D480032B00F3DC81012B03D0EC
:10091C00022B00F05F81D5E1FFF736FC0346012B7B
:10092C000CD19D4B0D221A60002210219B4801F026
:10093C0086FB00228021994801F081FB984B1B68B3
:10094C00002B4DD1974B1B68974A126811461846DD
:10095C00FFF75CFD954B1B68012B20D1944B1B685A
:10096C000133934A1360FA2000F06EFF914B1B6821
:10097C005A1C90490A601846FFF71CFF8C4B1B68E9
:10098C00042B0CD1874B1B68013B864A1360864BAA
:10099C001B68013B844A1360854B00221A600122BC
:1009AC0010217E4801F04BFB002220217B4801F0F6
:1009BC0046FB00224021794801F041FB00228021B6
:1009CC00764801F03CFB01224FF48071734801F032
:1009DC0036FB00224FF40071704801F030FB4CE004
:1009EC00704B1B686E4A126811461846FFF70EFDD5
:1009FC006E4B1B68012B40D16D4B1B6801336C4A4D
:100A0C001360FA2000F020FF6A4B1B685A1C6949DE
:100A1C000A601846FFF7CEFE654B1B68042B0CD101
:100A2C00604B1B68013B5F4A13605D4B1B68013BCD
:100A3C005B4A13605E4B00221A600122102157485A
:100A4C0001F0FDFA00222021544801F0F8FA0022AE
:100A5C004021524801F0F3FA002280214F4801F066
:100A6C00EEFA00224FF480714C4801F0E8FA0122B2
:100A7C004FF40071494801F0E2FA4F4B1B68012B0F
:100A8C0040F02281444B03221A604C4B1B684FF4FC
:100A9C007A7202FB03F3184600F0BCFE474B1B684E
:100AAC00474A1360474B1B68474A13600CE1FFF73A
:100ABC006BFB0346012B0CD1374B0D221A60002225
:100ACC001021364801F0BBFA00228021334801F096
:100ADC00B6FA3B4B1B683C4A126811461846FFF7A6
:100AEC0095FC324B1B68012B20D1FA2000F0ACFE98
:100AFC002F4B1B6801332E4A13602E4B1B685A1C5C
:100B0C002C490A601846FFF755FE294B1B68042B2D
:100B1C000CD12B4B1B68013B294A13602A4B1B68D9
:100B2C00013B294A1360224B00221A60002210213B
:100B3C001A4801F084FA00222021184801F07FFAAB
:100B4C0001224021154801F07AFA01228021134834
:100B5C0001F075FA00224FF48071104801F06FFA21
:100B6C0000224FF400710D4801F069FA124B1B681A
:100B7C00012B40F0AB80084B02221A60134B1B6810
:100B8C004FF47A7202FB03F3184600F043FE0F4B4E
:100B9C001B680F4A136099E0A00000200008014078
:100BAC00D4000020DC000020D8000020AC00002085
:100BBC009400002090000020A40000204C00002095
:100BCC00E800002048000020E40000205000002035
:100BDC00E0000020FFF7D8FA0346012B0CD13E4B66
:100BEC000D221A60002210213C4801F028FA002244
:100BFC0080213A4801F023FA394B1B68394A1268B4
:100C0C0011461846FFF702FC374B1B68012B20D10D
:100C1C00FA2000F019FE354B1B680133334A136080
:100C2C00334B1B685A1C32490A601846FFF7C2FD49
:100C3C002E4B1B68042B0CD1294B1B68013B284AFB
:100C4C001360284B1B68013B264A1360274B00227C
:100C5C001A6000221021214801F0F1F90122202113
:100C6C001E4801F0ECF9002240211C4801F0E7F984
:100C7C0001228021194801F0E2F900224FF4807121
:100C8C00164801F0DCF900224FF40071134801F012
:100C9C00D6F9184B1B68012B1AD10F4B01221A6085
:100CAC00154B1B684FF47A7202FB03F3184600F0E5
:100CBC00B1FD114B1B68114A1360114B1B68114A93
:100CCC00136005E000BF04E000BF02E000BF00E0DD
:100CDC0000BF00BF80BD00BFA00000200008014085
:100CEC00E0000020E4000020AC0000209400002074
:100CFC0090000020A400002048000020DC00002010
:100D0C004C000020D400002080B485B000AF786087
:100D1C0039607A681C4B83FB02139910D317C91ADC
:100D2C000B469B000B445B00D31AFB607B68164A96
:100D3C0082FB03129210DB17D31A7B60134A7B6879
:100D4C001360124AFB6853603A680F4B83FB021323
:100D5C009910D317C91A0B469B000B445B00D31A8E
:100D6C00BB603B68084A82FB03129210DB17D31A54
:100D7C003B60064A3B689360044ABB68D36000BF83
:100D8C001437BD4680BC704767666666C400002099
:100D9C0080B582B000AF78607B68092B00F280814F
:100DAC0001A252F823F000BFDD0D0008250E00084B
:100DBC006D0E0008B50E0008FD0E0008450F00086A
:100DCC008D0F0008D50F00081D10000865100008D5
:100DDC0000220121B54801F032F900220221B3486A
:100DEC0001F02DF900220421B04801F028F900226D
:100DFC000821AE4801F023F900221021AB4801F084
:100E0C001EF900222021A94801F019F901224021E4
:100E1C00A64801F014F944E101220121A34801F094
:100E2C000EF900220221A14801F009F90022042147
:100E3C009E4801F004F9012208219C4801F0FFF8BA
:100E4C0001221021994801F0FAF80122202197483B
:100E5C0001F0F5F801224021944801F0F0F820E16E
:100E6C0000220121914801F0EAF8002202218F486A
:100E7C0001F0E5F8012204218C4801F0E0F8002291
:100E8C0008218A4801F0DBF800221021874801F084
:100E9C00D6F801222021854801F0D1F8002240210A
:100EAC00824801F0CCF8FCE0002201217F4801F0DF
:100EBC00C6F8002202217D4801F0C1F8002204216D
:100ECC007A4801F0BCF800220821784801F0B7F804
:100EDC0001221021754801F0B2F80122202173483B
:100EEC0001F0ADF800224021704801F0A8F8D8E0DC
:100EFC00012201216D4801F0A2F8002202216B4869
:100F0C0001F09DF800220421684801F098F80122B4
:100F1C000821664801F093F801221021634801F082
:100F2C008EF800222021614801F089F8002240212E
:100F3C005E4801F084F8B4E0002201215B4801F026
:100F4C007EF801220221594801F079F8002204218F
:100F5C00564801F074F800220821544801F06FF84B
:100F6C0001221021514801F06AF8002220214F483B
:100F7C0001F065F8002240214C4801F060F890E047
:100F8C0000220121494801F05AF801220221474868
:100F9C0001F055F800220421444801F050F80022D9
:100FAC000821424801F04BF8002210213F4801F083
:100FBC0046F8002220213D4801F041F80022402152
:100FCC003A4801F03CF86CE000220121374801F06E
:100FDC0036F800220221354801F031F800220421B4
:100FEC00324801F02CF801220821304801F027F892
:100FFC00012210212D4801F022F8012220212B483A
:10100C0001F01DF801224021284801F018F848E0B1
:10101C0000220121254801F012F800220221234868
:10102C0001F00DF800220421204801F008F80022FC
:10103C0008211E4801F003F8002210211B4800F083
:10104C00FEFF00222021194800F0F9FF0022402168
:10105C00164800F0F4FF24E000220121134800F0B0
:10106C00EEFF00220221114800F0E9FF00220421CA
:10107C000E4800F0E4FF002208210C4800F0DFFFCE
:10108C0001221021094800F0DAFF00222021074834
:10109C0000F0D5FF00224021044800F0D0FF00E012
:1010AC0000BF00BF0837BD4680BD00BF000C01402B
:1010BC0080B582B000AF78607B68032B00F28F8024
:1010CC0001A252F823F000BFE5100008251100081A
:1010DC0065110008A511000800224FF480614248F8
:1010EC0000F0ADFF01224FF400613F4800F0A7FF74
:1010FC0001224FF480513C4800F0A1FF01224FF433
:10110C000051394800F09BFF384A7B6852F8233075
:10111C001846FFF73DFE63E001224FF48061324830
:10112C0000F08DFF00224FF400612F4800F087FF84
:10113C0001224FF480512C4800F081FF01224FF422
:10114C000051294800F07BFF284A7B6852F8233075
:10115C001846FFF71DFE43E001224FF48061224840
:10116C0000F06DFF01224FF400611F4800F067FF93
:10117C0000224FF480511C4800F061FF01224FF413
:10118C000051194800F05BFF184A7B6852F8233075
:10119C001846FFF7FDFD23E001224FF48061124851
:1011AC0000F04DFF01224FF400610F4800F047FFA3
:1011BC0001224FF480510C4800F041FF00224FF403
:1011CC000051094800F03BFF094B00221A60074A06
:1011DC007B6852F823301846FFF7DAFD00E000BFB9
:1011EC0000BF0837BD4680BD00080140C400002088
:1011FC009C00002080B500AF9C4B1B680F2B00F2AD
:10120C00BA8101A252F823F0551200088315000888
:10121C008315000883150008831500088315000842
:10122C008315000883150008831500088315000832
:10123C0083150008831500085D120008CF12000802
:10124C00A3130008A9140008884B0C221A6099E11A
:10125C0000221021864800F0F2FE00222021844852
:10126C0000F0EDFE00224021814800F0E8FE002253
:10127C0080217F4800F0E3FE00224FF480717C480F
:10128C0000F0DDFE00224FF40071794800F0D7FE2B
:10129C00764B01221A60774B1B684FF47A7202FB73
:1012AC0003F3184600F0B6FA724B1B68724A1360CF
:1012BC00724B1B68724A1360724B1B68724A136044
:1012CC0060E1724B1B6801211846FFF71DFD704B46
:1012DC001B68012B28D1FA2000F0B6FA002220213D
:1012EC00634800F0ACFE00224021614800F0A7FEEC
:1012FC0000224FF480715E4800F0A1FE00224FF4F2
:10130C0000715B4800F09BFE1021594800F0AFFEC5
:10131C008021574800F0ABFE5E4B1B685A1C5D49A0
:10132C000A601846FFF7C4FEFEF740FF0346012B88
:10133C000CD1564B1B68622B03DD544B63221A6095
:10134C0004E0524B1B680133504A1360FEF752FF06
:10135C000346012B0CD14D4B1B68622B03DD4B4B11
:10136C0063221A6004E0494B1B680133474A13603F
:10137C00FEF72EFF0346012B03D1444B1B683D4A5D
:10138C001360FEF701FF0346012B40F0F680374B4C
:10139C000E221A60F1E0404B1B6802211846FFF741
:1013AC00B3FC3B4B1B68012B28D1FA2000F04CFA04
:1013BC00002210212E4800F042FE002240212C4831
:1013CC0000F03DFE00228021294800F038FE00226A
:1013DC004FF40071264800F032FE2021244800F022
:1013EC0046FE4FF48071224800F041FE294B1B68E9
:1013FC005A1C28490A601846FFF75AFEFEF7D6FE1B
:10140C000346012B0CD1244B1B68622B03DD224BB2
:10141C0063221A6004E0204B1B6801331E4A1360E0
:10142C00FEF7E8FE0346012B0CD11B4B1B68622B0D
:10143C0003DD194B63221A6004E0174B1B68013360
:10144C00154A1360FEF7C4FE0346012B03D1124B61
:10145C001B680C4A1360FEF797FE0346012B40F005
:10146C008E80024B0F221A6089E000BFA000002082
:10147C000008014048000020DC0000204C00002047
:10148C00D400002050000020D80000203C00002098
:10149C00AC0000209C000020400000203A4B1B6850
:1014AC0003211846FFF730FC384B1B68012B2DD15C
:1014BC00374B1B680133364A1360FA2000F0C4F92D
:1014CC0000221021334800F0BAFD002220213148BF
:1014DC0000F0B5FD002280212E4800F0B0FD002266
:1014EC004FF480712B4800F0AAFD4021294800F0F0
:1014FC00BEFD4FF40071274800F0B9FD264B1B6868
:10150C005A1C25490A601846FFF7D2FDFEF74EFE1D
:10151C000346012B0BD11C4B1B68622B02DD1A4BB3
:10152C0063221A60184B1B680133174A1360FEF7CD
:10153C0061FE0346012B0CD1134B1B68622B03DDA0
:10154C00114B63221A6004E00F4B1B6801330E4AE7
:10155C001360FEF73DFE0346012B03D10A4B1B68BB
:10156C000E4A1360FEF710FE0346012B09D10C4BFB
:10157C000C221A6005E000BF04E000BF02E000BFCF
:10158C0000E000BF00BF80BD44000020AC00002084
:10159C0098000020000801409C0000204C00002016
:1015AC00A000002080B500AF00F048FA00F014F85D
:1015BC0000F09AF800F04CF8054801F0A9F9054B39
:1015CC0000221A60FFF716FEFFF796F9FAE700BF44
:1015DC00EC000020A000002080B590B000AF07F117
:1015EC00180328220021184601F04AFD3B1D002259
:1015FC001A605A609A60DA601A610223BB61012397
:10160C00BB621023FB6200237B6307F118031846AF
:10161C0000F046FD0346002B01D000F0F5F80F2337
:10162C007B600023BB600023FB6000233B61002335
:10163C007B613B1D0021184600F0B2FF0346002BD6
:10164C0001D000F0E1F800BF4037BD4680BD00007E
:10165C0080B586B000AF07F1080300221A605A600B
:10166C009A60DA603B4600221A605A601D4B4FF0BC
:10167C0080421A601B4B41F63F725A60194B002294
:10168C009A60184B0922DA60164B00221A61154B2E
:10169C0000229A61134801F0EBF80346002B01D0AD
:1016AC0000F0B2F84FF48053BB6007F10803194601
:1016BC000C4801F081FA0346002B01D000F0A4F88D
:1016CC0000233B6000237B603B461946054801F034
:1016DC0049FC0346002B01D000F096F800BF1837E8
:1016EC00BD4680BDEC00002080B588B000AF07F18E
:1016FC00100300221A605A609A60DA60354B9B69BD
:10170C00344A43F010039361324B9B6903F010038E
:10171C00FB60FB682F4B9B692E4A43F004039361DB
:10172C002C4B9B6903F00403BB60BB68294B9B6982
:10173C00284A43F008039361264B9B6903F0080386
:10174C007B607B68002243F6F071234800F077FC45
:10175C00002243F6FF71214800F071FC4FF4005356
:10176C003B6100237B610123BB6107F11003194628
:10177C001B4800F0D3FA43F6F0733B6101237B6105
:10178C000023BB610223FB6107F1100319461248C9
:10179C0000F0C4FA43F6FF733B6101237B61002325
:1017AC00BB610223FB6107F1100319460B4800F0E3
:1017BC00B5FA4FF440433B6100237B610123BB61CD
:1017CC0007F110031946054800F0A8FA00BF2037AE
:1017DC00BD4680BD0010024000080140000C0140D5
:1017EC000010014080B582B000AF786000F046F880
:1017FC0000F05AF8FEF76EFDFEF70EFDFEF7B8FD91
:10180C0000BF0837BD4680BD80B400AF72B600BFC4
:10181C00FEE7000080B483B000AF7860074B1B6814
:10182C007A6892FBF3F3064A1360064B00221A60A7
:10183C0000BF0C37BD4680BC704700BF5400002071
:10184C00A8000020A400002080B483B000AF786012
:10185C00074B1B687A6892FBF3F3064A1360064B3E
:10186C0000221A6000BF0C37BD4680BC704700BF19
:10187C0054000020B0000020AC00002080B400AF69
:10188C00074B1B68013B064A1360054B1B68002B7A
:10189C0002DC044B01221A6000BFBD4680BC7047BD
:1018AC00A8000020A400002080B400AF074B1B68E8
:1018BC00013B064A1360054B1B68002B02DC044BF2
:1018CC0001221A6000BFBD4680BC7047B0000020EA
:1018DC00AC00002080B485B000AF154B9B69144A56
:1018EC0043F001039361124B9B6903F00103BB604E
:1018FC00BB680F4BDB690E4A43F08053D3610C4B32
:10190C00DB6903F080537B607B680A4B5B68FB6090
:10191C00FB6823F0E063FB60FB6843F08063FB60D3
:10192C00044AFB68536000BF1437BD4680BC704747
:10193C00001002400000014080B584B000AF786018
:10194C007B681B68B3F1804F13D10C4BDB690B4ADE
:10195C0043F00103D361094BDB6903F00103FB6026
:10196C00FB68002200211C2000F0A1F91C2000F0D3
:10197C00BAF900BF1037BD4680BD00BF0010024051
:10198C0080B400AFFEE780B400AFFEE780B400AFD8
:10199C00FEE780B400AFFEE780B400AFFEE780B492
:1019AC0000AF00BFBD4680BC704780B400AF00BF25
:1019BC00BD4680BC704780B400AF00BFBD4680BC44
:1019CC00704780B500AF00F07FF800BF80BD00000D
:1019DC0080B500AF024800F0E7FF00BF80BD00BF3C
:1019EC00EC00002080B400AF00BFBD4680BC704747
:1019FC000C480D490D4A002302E0D458C45004335E
:101A0C00C4188C42F9D30A4A0A4C002301E0136033
:101A1C000432A242FBD3FFF7E5FF01F00DFBFFF709
:101A2C00C1FD70470000002064000020DC3000087D
:101A3C006400002038010020FEE7000080B500AFF4
:101A4C00084B1B68074A43F010031360032000F097
:101A5C0023F90F2000F008F8FFF73CFF002318468D
:101A6C0080BD00BF0020024080B582B000AF78601E
:101A7C00124B1A68124B1B7819464FF47A73B3FB4E
:101A8C00F1F3B2FBF3F3184600F03BF90346002BDD
:101A9C0001D001230EE07B680F2B0AD80022796855
:101AAC004FF0FF3000F003F9064A7B681360002307
:101ABC0000E0012318460837BD4680BD58000020C1
:101ACC00600000205C00002080B400AF054B1B7848
:101ADC001A46054B1B681344034A136000BFBD46EE
:101AEC0080BC7047600000203401002080B400AF3F
:101AFC00024B1B681846BD4680BC70473401002061
:101B0C0080B485B000AF78607B6803F00703FB609E
:101B1C000C4BDB68BB60BA684FF6FF031340BB602D
:101B2C00FB681A02BB68134343F0BF6343F40033F2
:101B3C00BB60044ABB68D36000BF1437BD4680BC91
:101B4C00704700BF00ED00E080B400AF044BDB68D1
:101B5C001B0A03F007031846BD4680BC704700BF44
:101B6C0000ED00E080B483B000AF0346FB7197F941
:101B7C000730002B0BDBFB7903F01F02064997F9AA
:101B8C0007305B09012000FA02F241F8232000BF64
:101B9C000C37BD4680BC704700E100E080B483B0D8
:101BAC0000AF03463960FB7197F90730002B0ADB55
:101BBC003B68DAB20C4997F907301201D2B20B44E8
:101BCC0083F800230AE03B68DAB20849FB7903F09A
:101BDC000F03043B1201D2B20B441A7600BF0C3730
:101BEC00BD4680BC704700BF00E100E000ED00E0A6
:101BFC0080B489B000AFF860B9607A60FB6803F01C
:101C0C000703FB61FB69C3F10703042B28BF042303
:101C1C00BB61FB690433062B02D9FB69033B00E073
:101C2C0000237B614FF0FF32BB6902FA03F3DA4306
:101C3C00BB681A407B699A404FF0FF317B6901FA0F
:101C4C0003F3D9437B680B40134318462437BD4636
:101C5C0080BC704780B582B000AF78607B68013B78
:101C6C00B3F1807F01D301230FE00A4A7B68013B6B
:101C7C0053600F214FF0FF30FFF790FF054B002210
:101C8C009A60044B07221A60002318460837BD4699
:101C9C0080BD00BF10E000E080B582B000AF78607E
:101CAC007868FFF72DFF00BF0837BD4680BD80B5B3
:101CBC0086B000AF0346B9607A60FB7300237B618A
:101CCC00FFF742FF78617A68B9687869FFF790FF8F
:101CDC00024697F90F3011461846FFF75FFF00BF19
:101CEC001837BD4680BD80B582B000AF0346FB718E
:101CFC0097F907301846FFF735FF00BF0837BD4688
:101D0C0080BD80B582B000AF78607868FFF7A2FF25
:101D1C00034618460837BD4680BD000080B48BB022
:101D2C0000AF7860396000237B6200233B6248E19E
:101D3C0001227B6A02FA03F3FB613B681B68FA69B8
:101D4C001340BB61BA69FB699A4240F037813B682A
:101D5C005B68A34A93425ED0A14A934275D8A14ACC
:101D6C00934258D09F4A93426FD89F4A934252D085
:101D7C009D4A934269D89D4A93424CD09B4A9342C8
:101D8C0063D89B4A934246D0994A93425DD8122B12
:101D9C002AD8122B59D801A252F823F0231E00087E
:101DAC00FD1D00080F1E0008511E0008571E0008DC
:101DBC00571E0008571E0008571E0008571E000823
:101DCC00571E0008571E0008571E0008571E000813
:101DDC00571E0008571E0008571E0008571E000803
:101DEC00051E0008191E0008824A934213D02CE0ED
:101DFC003B68DB683B6229E03B68DB6804333B6291
:101E0C0024E03B68DB6808333B621FE03B68DB681F
:101E1C000C333B621AE03B689B68002B02D1042315
:101E2C003B6213E03B689B68012B05D108233B62A6
:101E3C007B68FA691A6109E008233B627B68FA69DE
:101E4C005A6103E000233B6200E000BFBB69FF2B3B
:101E5C0001D87B6801E07B6804337B61BB69FF2B95
:101E6C0002D87B6A9B0002E07B6A083B9B003B61CB
:101E7C007B691A680F213B6901FA03F3DB431A40B3
:101E8C00396A3B6901FA03F31A437B691A603B68B0
:101E9C005B6803F08053002B00F09080564B9B69DD
:101EAC00554A43F001039361534B9B6903F00103C3
:101EBC00BB60BB68514A7B6A9B08023352F82330E3
:101ECC00FB607B6A03F003039B000F2202FA03F30F
:101EDC00DB43FA681340FB607B68494A93420DD0A0
:101EEC007B68484A934207D07B68474A934201D1AA
:101EFC00022304E0032302E0012300E000237A6ABA
:101F0C0002F0030292009340FA681343FB603B49D2
:101F1C007B6A9B080233FA6841F823203B685B68B4
:101F2C0003F48033002B06D0384B1A683749BB6951
:101F3C0013430B6006E0354B1A68BB69DB4333492E
:101F4C0013400B603B685B6803F40033002B06D036
:101F5C002E4B5A682D49BB6913434B6006E02B4B43
:101F6C005A68BB69DB43294913404B603B685B688B
:101F7C0003F48013002B06D0244B9A682349BB69C9
:101F8C0013438B6006E0214B9A68BB69DB431F4906
:101F9C0013408B603B685B6803F40013002B06D086
:101FAC001A4BDA681949BB691343CB6006E0174B2F
:101FBC00DA68BB69DB4315491340CB607B6A01339C
:101FCC007B623B681A687B6A22FA03F3002B7FF46E
:101FDC00AFAE00BF00BF2C37BD4680BC704700BF02
:101FEC0000003210000031100000221000002110FF
:101FFC0000001210000011100010024000000140FF
:10200C0000080140000C0140001001400004014098
:10201C0080B485B000AF78600B467B807B689A6893
:10202C007B881340002B02D00123FB7301E00023BB
:10203C00FB73FB7B18461437BD4680BC704780B4DD
:10204C0083B000AF78600B467B8013467B707B7847
:10205C00002B03D07A887B681A6103E07B881A0412
:10206C007B681A6100BF0C37BD4680BC704780B4DA
:10207C0085B000AF78600B467B807B68DB68FB60CB
:10208C007A88FB6813401A04FB68D9437B880B40A1
:10209C001A437B681A6100BF1437BD4680BC704779
:1020AC0080B586B000AF78607B68002B01D101232E
:1020BC006CE27B681B6803F00103002B00F0878047
:1020CC00924B5B6803F00C03042B0CD08F4B5B68BA
:1020DC0003F00C03082B12D18C4B5B6803F4803398
:1020EC00B3F5803F0BD1894B1B6803F40033002BF5
:1020FC006CD07B685B68002B68D1012346E27B685F
:10210C005B68B3F5803F06D1804B1B687F4A43F474
:10211C00803313602EE07B685B68002B0CD17B4B0B
:10212C001B687A4A23F480331360784B1B68774A18
:10213C0023F4802313601DE07B685B68B3F5A02F4C
:10214C000CD1724B1B68714A43F4802313606F4BA4
:10215C001B686E4A43F4803313600BE06B4B1B68B7
:10216C006A4A23F480331360684B1B68674A23F474
:10217C00802313607B685B68002B13D0FFF7B6FCE1
:10218C00386108E0FFF7B2FC02463B69D31A642BB6
:10219C0001D90323FAE15D4B1B6803F40033002BD8
:1021AC00F0D014E0FFF7A2FC386108E0FFF79EFCCA
:1021BC0002463B69D31A642B01D90323E6E1534B46
:1021CC001B6803F40033002BF0D100E000BF7B68E8
:1021DC001B6803F00203002B63D04C4B5B6803F0CD
:1021EC000C03002B0BD0494B5B6803F00C03082B42
:1021FC001CD1464B5B6803F48033002B16D1434B48
:10220C001B6803F00203002B05D07B681B69012BB4
:10221C0001D00123BAE13D4B1B6823F0F8027B6827
:10222C005B69DB00394913430B603AE07B681B693F
:10223C00002B20D0364B01221A60FFF757FC386177
:10224C0008E0FFF753FC02463B69D31A022B01D975
:10225C0003239BE12D4B1B6803F00203002BF0D0F2
:10226C002A4B1B6823F0F8027B685B69DB0027496B
:10227C0013430B6015E0264B00221A60FFF736FC67
:10228C00386108E0FFF732FC02463B69D31A022B97
:10229C0001D903237AE11D4B1B6803F00203002BC9
:1022AC00F0D17B681B6803F00803002B3AD07B68E5
:1022BC009B69002B19D0174B01221A60FFF716FCF3
:1022CC00386108E0FFF712FC02463B69D31A022B77
:1022DC0001D903235AE10D4B5B6A03F00203002B77
:1022EC00F0D0012000F0A6FA1CE00A4B00221A6084
:1022FC00FFF7FCFB38610FE0FFF7F8FB02463B6988
:10230C00D31A022B08D9032340E100BF001002406E
:10231C0000004242800442429E4B5B6A03F002037F
:10232C00002BE9D17B681B6803F00403002B00F041
:10233C00A6800023FB75974BDB6903F08053002BC1
:10234C000DD1944BDB69934A43F08053D361914B8D
:10235C00DB6903F08053BB60BB680123FB758E4BBC
:10236C001B6803F48073002B18D18B4B1B688A4AB3
:10237C0043F480731360FFF7B9FB386108E0FFF793
:10238C00B5FB02463B69D31A642B01D90323FDE04C
:10239C00814B1B6803F48073002BF0D07B68DB68E7
:1023AC00012B06D17B4B1B6A7A4A43F00103136263
:1023BC002DE07B68DB68002B0CD1764B1B6A754AD1
:1023CC0023F001031362734B1B6A724A23F004035C
:1023DC0013621CE07B68DB68052B0CD16D4B1B6A10
:1023EC006C4A43F0040313626A4B1B6A694A43F05C
:1023FC00010313620BE0674B1B6A664A23F001036F
:10240C001362644B1B6A634A23F0040313627B68F8
:10241C00DB68002B15D0FFF769FB38610AE0FFF78A
:10242C0065FB02463B69D31A41F28832934201D9CB
:10243C000323ABE0574B1B6A03F00203002BEED0D7
:10244C0014E0FFF753FB38610AE0FFF74FFB02463D
:10245C003B69D31A41F28832934201D9032395E0A8
:10246C004C4B1B6A03F00203002BEED1FB7D012BBE
:10247C0005D1484BDB69474A23F08053D3617B6815
:10248C00DB69002B00F08180424B5B6803F00C038E
:10249C00082B61D07B68DB69022B46D13F4B0022B5
:1024AC001A60FFF723FB386108E0FFF71FFB0246B9
:1024BC003B69D31A022B01D9032367E0354B1B6808
:1024CC0003F00073002BF0D17B681B6AB3F5803FDF
:1024DC0008D1304B5B6823F400327B689B682D4934
:1024EC0013434B602B4B5B6823F474127B68196AA3
:1024FC007B685B6A0B43274913434B60274B0122D4
:10250C001A60FFF7F3FA386108E0FFF7EFFA0246BA
:10251C003B69D31A022B01D9032337E01D4B1B68EF
:10252C0003F00073002BF0D02FE01C4B00221A603C
:10253C00FFF7DCFA386108E0FFF7D8FA02463B698E
:10254C00D31A022B01D9032320E0124B1B6803F092
:10255C000073002BF0D118E07B68DB69012B01D1F3
:10256C00012313E00B4B5B68FB60FB6803F48032C8
:10257C007B681B6A9A4206D1FB6803F470127B6875
:10258C005B6A9A4201D0012300E0002318461837F9
:10259C00BD4680BD00100240007000406000424209
:1025AC0080B584B000AF786039607B68002B01D1B6
:1025BC000123D0E06A4B1B6803F007033A689A4288
:1025CC0010D9674B1B6823F0070265493B6813431E
:1025DC000B60634B1B6803F007033A689A4201D007
:1025EC000123B8E07B681B6803F00203002B20D0AA
:1025FC007B681B6803F00403002B05D0594B5B6808
:10260C00584A43F4E06353607B681B6803F008038B
:10261C00002B05D0534B5B68524A43F46053536014
:10262C00504B5B6823F0F0027B689B684D49134369
:10263C004B607B681B6803F00103002B40D07B6868
:10264C005B68012B07D1474B1B6803F40033002B4D
:10265C0015D101237FE07B685B68022B07D1414BCE
:10266C001B6803F00073002B09D1012373E03D4B71
:10267C001B6803F00203002B01D101236BE0394BE3
:10268C005B6823F003027B685B68364913434B603D
:10269C00FFF72CFAF8600AE0FFF728FA0246FB680D
:1026AC00D31A41F28832934201D9032353E02D4BC4
:1026BC005B6803F00C027B685B689B009A42EBD171
:1026CC00274B1B6803F007033A689A4210D2244B3D
:1026DC001B6823F0070222493B6813430B60204B15
:1026EC001B6803F007033A689A4201D0012332E0D9
:1026FC007B681B6803F00403002B08D0194B5B6844
:10270C0023F4E0627B68DB68164913434B607B68FB
:10271C001B6803F00803002B09D0124B5B6823F4F1
:10272C0060527B681B69DB000E4913434B6000F061
:10273C0021F802460B4B5B681B0903F00F030A4997
:10274C00CB5C22FA03F3094A1360094B1B68184649
:10275C00FFF78AF9002318461037BD4680BD00BF2D
:10276C000020024000100240C43000085800002035
:10277C005C00002090B48AB000AF2A4B3C1D0FCBFC
:10278C0084E80F0040F201233B800023FB6100230F
:10279C00BB6100237B6200237B6100233B62224BE5
:1027AC005B68FB61FB6903F00C03042B02D0082B64
:1027BC0003D02DE01D4B3B622DE0FB699B0C03F01D
:1027CC000F0307F12802134413F8243C7B61FB69C7
:1027DC0003F48033002B13D0134B5B685B0C03F0BA
:1027EC00010307F12802134413F8283CBB617B69F1
:1027FC000E4A02FB03F2BB69B2FBF3F37B6204E00B
:10280C007B690B4A02FB03F37B627B6A3B6202E04F
:10281C00064B3B6200BF3B6A18462837BD4690BC4E
:10282C00704700BFB43000080010024000127A005C
:10283C0000093D0080B485B000AF78600A4B1B687E
:10284C000A4AA2FB03235B0A7A6802FB03F3FB60D0
:10285C0000BFFB685A1EFA60002BF9D100BF00BF05
:10286C001437BD4680BC704758000020D34D621011
:10287C0080B582B000AF78607B68002B01D101235A
:10288C0041E07B6893F83D30DBB2002B06D17B68CE
:10289C00002283F83C207868FFF74EF87B68022210
:1028AC0083F83D207B681A687B6804331946104610
:1028BC0000F06AFA7B68012283F846207B680122CB
:1028CC0083F83E207B68012283F83F207B6801223D
:1028DC0083F840207B68012283F841207B68012229
:1028EC0083F842207B68012283F843207B68012215
:1028FC0083F844207B68012283F845207B68012201
:10290C0083F83D20002318460837BD4680BD0000E3
:10291C0080B485B000AF78607B6893F83D30DBB253
:10292C00012B01D0012335E07B68022283F83D2086
:10293C007B681B68DA687B681B6842F00102DA600E
:10294C007B681B68164A934209D07B681B68B3F1FD
:10295C00804F04D07B681B68124A934211D17B686C
:10296C001B689B6803F00703FB60FB68062B10D009
:10297C007B681B681A687B681B6842F001021A604E
:10298C0007E07B681B681A687B681B6842F00102D1
:10299C001A60002318461437BD4680BC704700BF30
:1029AC00002C01400004004080B582B000AF78607C
:1029BC007B681B681B6903F00203022B22D17B6826
:1029CC001B68DB6803F00203022B1BD17B681B68BE
:1029DC006FF002021A617B6801221A777B681B6810
:1029EC009B6903F00303002B03D0786800F0B1F966
:1029FC0005E0786800F0A4F9786800F0B3F97B681A
:102A0C0000221A777B681B681B6903F00403042BF4
:102A1C0022D17B681B68DB6803F00403042B1BD1F9
:102A2C007B681B686FF004021A617B6802221A77BC
:102A3C007B681B689B6903F44073002B03D0786898
:102A4C0000F087F905E0786800F07AF9786800F012
:102A5C0089F97B6800221A777B681B681B6903F075
:102A6C000803082B22D17B681B68DB6803F0080382
:102A7C00082B1BD17B681B686FF008021A617B68FE
:102A8C0004221A777B681B68DB6903F00303002BB5
:102A9C0003D0786800F05DF905E0786800F050F933
:102AAC00786800F05FF97B6800221A777B681B68F6
:102ABC001B6903F01003102B22D17B681B68DB68A9
:102ACC0003F01003102B1BD17B681B686FF01002F6
:102ADC001A617B6808221A777B681B68DB6903F430
:102AEC004073002B03D0786800F033F905E0786868
:102AFC0000F026F9786800F035F97B6800221A7727
:102B0C007B681B681B6903F00103012B0ED17B68EA
:102B1C001B68DB6803F00103012B07D17B681B6882
:102B2C006FF001021A617868FEF75CFE7B681B6827
:102B3C001B6903F08003802B0ED17B681B68DB685C
:102B4C0003F08003802B07D17B681B686FF0800239
:102B5C001A61786800F067FA7B681B681B6903F0E0
:102B6C004003402B0ED17B681B68DB6803F04003ED
:102B7C00402B07D17B681B686FF040021A617868A4
:102B8C0000F0F9F87B681B681B6903F02003202B0D
:102B9C000ED17B681B68DB6803F02003202B07D168
:102BAC007B681B686FF020021A61786800F032FABB
:102BBC0000BF0837BD4680BD80B584B000AF7860DB
:102BCC0039607B6893F83C30012B01D10223B3E0D0
:102BDC007B68012283F83C207B68022283F83D202D
:102BEC007B681B689B68FB60FB6823F07703FB60CA
:102BFC00FB6823F47F43FB607B681B68FA689A6070
:102C0C003B681B68B3F5005F3ED0B3F5005F00F284
:102C1C008780B3F5805F00F08580B3F5805F7FD847
:102C2C00702B1AD0702B7BD8602B50D0602B77D8A0
:102C3C00502B3CD0502B73D8402B58D0402B6FD8F6
:102C4C00302B64D0302B6BD8202B60D0202B67D846
:102C5C00002B5CD0102B5AD062E07B6818683B6864
:102C6C0099683B685A683B68DB6800F05CF97B68E4
:102C7C001B689B68FB60FB6843F07703FB607B6819
:102C8C001B68FA689A604EE07B6818683B68996824
:102C9C003B685A683B68DB6800F045F97B681B6849
:102CAC009A687B681B6842F480429A603BE07B68C0
:102CBC0018683B6859683B68DB681A4600F0BCF83A
:102CCC007B681B685021184600F013F92BE07B68D9
:102CDC0018683B6859683B68DB681A4600F0DAF8FC
:102CEC007B681B686021184600F003F91BE07B68C9
:102CFC0018683B6859683B68DB681A4600F09CF81A
:102D0C007B681B684021184600F0F3F80BE07B68E9
:102D1C001A683B681B681946104600F0EAF802E096
:102D2C0000BF00E000BF7B68012283F83D207B6878
:102D3C00002283F83C20002318461037BD4680BD86
:102D4C0080B483B000AF786000BF0C37BD4680BC48
:102D5C00704780B483B000AF786000BF0C37BD46BD
:102D6C0080BC704780B483B000AF786000BF0C3774
:102D7C00BD4680BC704780B483B000AF786000BFA4
:102D8C000C37BD4680BC704780B485B000AF78600E
:102D9C0039607B681B68FB607B68254A934207D0CF
:102DAC007B68B3F1804F03D07B68224A934208D1F1
:102DBC00FB6823F07003FB603B685B68FA681343A5
:102DCC00FB607B681A4A934207D07B68B3F1804F53
:102DDC0003D07B68174A934208D1FB6823F44073F5
:102DEC00FB603B68DB68FA681343FB60FB6823F00D
:102DFC0080023B685B691343FB607B68FA681A606E
:102E0C003B689A687B68DA623B681A687B689A62EE
:102E1C007B68074A934203D13B681A697B681A6343
:102E2C007B6801225A6100BF1437BD4680BC7047D5
:102E3C00002C01400004004080B487B000AFF86063
:102E4C00B9607A60FB681B6A7B61FB681B6A23F0C4
:102E5C000102FB681A62FB689B693B613B6923F0CA
:102E6C00F0033B617B681B013A6913433B617B694F
:102E7C0023F00A037B617A69BB6813437B61FB68AF
:102E8C003A699A61FB687A691A6200BF1C37BD46C1
:102E9C0080BC704780B487B000AFF860B9607A60CE
:102EAC00FB681B6A23F01002FB681A62FB689B69C3
:102EBC007B61FB681B6A3B617B6923F470437B611C
:102ECC007B681B037A6913437B613B6923F0A00386
:102EDC003B61BB681B013A6913433B61FB687A6930
:102EEC009A61FB683A691A6200BF1C37BD4680BC08
:102EFC00704780B485B000AF786039607B689B68A0
:102F0C00FB60FB6823F07003FB603A68FB681343BB
:102F1C0043F00703FB607B68FA689A6000BF1437C4
:102F2C00BD4680BC704780B487B000AFF860B96014
:102F3C007A603B60FB689B687B617B6923F47F4311
:102F4C007B613B681A027B681A43BB6813437A693E
:102F5C0013437B61FB687A699A6000BF1C37BD46DE
:102F6C0080BC704780B485B000AF786039607B68F6
:102F7C0093F83C30012B01D1022341E07B68012204
:102F8C0083F83C207B68022283F83D207B681B6819
:102F9C005B68FB607B681B689B68BB60FB6823F00D
:102FAC007003FB603B681B68FA681343FB607B682B
:102FBC001B68FA685A607B681B68144A934209D0F4
:102FCC007B681B68B3F1804F04D07B681B68104A88
:102FDC0093420CD1BB6823F08003BB603B685B68F9
:102FEC00BA681343BB607B681B68BA689A607B68DD
:102FFC00012283F83D207B68002283F83C200023CB
:10300C0018461437BD4680BC704700BF002C0140E9
:10301C000004004080B483B000AF786000BF0C3770
:10302C00BD4680BC704780B483B000AF786000BFF1
:10303C000C37BD4680BC704770B500260C4D0D4C4E
:10304C00641BA410A64209D100F022F800260A4DF8
:10305C000A4C641BA410A64205D170BD55F8043B64
:10306C0098470136EEE755F8043B98470136F2E7EE
:10307C00D4300008D4300008D4300008D830000810
:10308C0003460244934200D1704703F8011BF9E751
:10309C00F8B500BFF8BC08BC9E467047F8B500BF39
:0830AC00F8BC08BC9E46704709
:1030B40002030405060708090A0B0C0D0E0F101075
:1030C40000000000000000000102030406070809D4
:0430D40031010008BE
:0430D8000D010008DE
:1030DC0001000000010000000100000001000000E0
:1030EC0001000000010000000100000001000000D0
:1030FC0001000000010000000100000001000000C0
:10310C006400000064000000640000000100000086
:10311C000100000001000000090000000600000092
:10312C00030000000A0000000024F400100000005E
:04313C00010000008E
:04000005080019FDD9
:00000001FF
